{
  "contractName": "TimeLockedTokenStorage",
  "abi": [
    {
      "constant": false,
      "inputs": [
        {
          "name": "_holder",
          "type": "address"
        },
        {
          "name": "_tokens",
          "type": "uint256[]"
        },
        {
          "name": "_periods",
          "type": "uint256[]"
        }
      ],
      "name": "createLockSlot",
      "outputs": [],
      "payable": false,
      "stateMutability": "nonpayable",
      "type": "function"
    },
    {
      "constant": true,
      "inputs": [
        {
          "name": "_lockSlotId",
          "type": "uint256"
        }
      ],
      "name": "getAddressToId",
      "outputs": [
        {
          "name": "",
          "type": "address"
        }
      ],
      "payable": false,
      "stateMutability": "view",
      "type": "function"
    },
    {
      "constant": true,
      "inputs": [],
      "name": "getHoldersQuantity",
      "outputs": [
        {
          "name": "",
          "type": "uint256"
        }
      ],
      "payable": false,
      "stateMutability": "view",
      "type": "function"
    },
    {
      "constant": false,
      "inputs": [
        {
          "name": "_lockSlotId",
          "type": "uint256"
        }
      ],
      "name": "release",
      "outputs": [],
      "payable": false,
      "stateMutability": "nonpayable",
      "type": "function"
    },
    {
      "constant": true,
      "inputs": [],
      "name": "getSlotsQuantity",
      "outputs": [
        {
          "name": "",
          "type": "uint256"
        }
      ],
      "payable": false,
      "stateMutability": "view",
      "type": "function"
    },
    {
      "constant": true,
      "inputs": [
        {
          "name": "_lockSlotId",
          "type": "uint256"
        },
        {
          "name": "_i",
          "type": "uint256"
        }
      ],
      "name": "getDateAndReleaseToCounter",
      "outputs": [
        {
          "name": "_nextDate",
          "type": "uint256"
        },
        {
          "name": "_nextRelease",
          "type": "uint256"
        }
      ],
      "payable": false,
      "stateMutability": "view",
      "type": "function"
    },
    {
      "constant": true,
      "inputs": [
        {
          "name": "",
          "type": "address"
        }
      ],
      "name": "governanceContracts",
      "outputs": [
        {
          "name": "",
          "type": "bool"
        }
      ],
      "payable": false,
      "stateMutability": "view",
      "type": "function"
    },
    {
      "constant": false,
      "inputs": [],
      "name": "renounceOwnership",
      "outputs": [],
      "payable": false,
      "stateMutability": "nonpayable",
      "type": "function"
    },
    {
      "constant": true,
      "inputs": [],
      "name": "lostTime",
      "outputs": [
        {
          "name": "",
          "type": "uint256"
        }
      ],
      "payable": false,
      "stateMutability": "view",
      "type": "function"
    },
    {
      "constant": true,
      "inputs": [],
      "name": "withdrawableTokens",
      "outputs": [
        {
          "name": "",
          "type": "uint256"
        }
      ],
      "payable": false,
      "stateMutability": "view",
      "type": "function"
    },
    {
      "constant": false,
      "inputs": [
        {
          "name": "addr",
          "type": "address"
        }
      ],
      "name": "addAddressToGovernanceContract",
      "outputs": [
        {
          "name": "success",
          "type": "bool"
        }
      ],
      "payable": false,
      "stateMutability": "nonpayable",
      "type": "function"
    },
    {
      "constant": true,
      "inputs": [
        {
          "name": "_holder",
          "type": "address"
        }
      ],
      "name": "getAllLockSlotIdsToAddress",
      "outputs": [
        {
          "name": "_lockSlotIds",
          "type": "uint256[]"
        }
      ],
      "payable": false,
      "stateMutability": "view",
      "type": "function"
    },
    {
      "constant": true,
      "inputs": [],
      "name": "owner",
      "outputs": [
        {
          "name": "",
          "type": "address"
        }
      ],
      "payable": false,
      "stateMutability": "view",
      "type": "function"
    },
    {
      "constant": true,
      "inputs": [
        {
          "name": "_lockSlotId",
          "type": "uint256"
        }
      ],
      "name": "getAvailableTokens",
      "outputs": [
        {
          "name": "",
          "type": "uint256"
        }
      ],
      "payable": false,
      "stateMutability": "view",
      "type": "function"
    },
    {
      "constant": false,
      "inputs": [
        {
          "name": "_lockSlotId",
          "type": "uint256"
        }
      ],
      "name": "withdrawLostToken",
      "outputs": [],
      "payable": false,
      "stateMutability": "nonpayable",
      "type": "function"
    },
    {
      "constant": true,
      "inputs": [],
      "name": "getTotalLockedTokens",
      "outputs": [
        {
          "name": "",
          "type": "uint256"
        }
      ],
      "payable": false,
      "stateMutability": "view",
      "type": "function"
    },
    {
      "constant": true,
      "inputs": [],
      "name": "token_",
      "outputs": [
        {
          "name": "",
          "type": "address"
        }
      ],
      "payable": false,
      "stateMutability": "view",
      "type": "function"
    },
    {
      "constant": true,
      "inputs": [
        {
          "name": "_lockSlotId",
          "type": "uint256"
        }
      ],
      "name": "getLock",
      "outputs": [
        {
          "name": "_amountTokens",
          "type": "uint256"
        },
        {
          "name": "_periods",
          "type": "uint256[]"
        },
        {
          "name": "_tokens",
          "type": "uint256[]"
        },
        {
          "name": "_paidTokens",
          "type": "uint256"
        },
        {
          "name": "_finalize",
          "type": "bool"
        }
      ],
      "payable": false,
      "stateMutability": "view",
      "type": "function"
    },
    {
      "constant": true,
      "inputs": [],
      "name": "maximumDurationToFreeze",
      "outputs": [
        {
          "name": "",
          "type": "uint256"
        }
      ],
      "payable": false,
      "stateMutability": "view",
      "type": "function"
    },
    {
      "constant": true,
      "inputs": [],
      "name": "getWithdrawableTokens",
      "outputs": [
        {
          "name": "",
          "type": "uint256"
        }
      ],
      "payable": false,
      "stateMutability": "view",
      "type": "function"
    },
    {
      "constant": false,
      "inputs": [
        {
          "name": "_newOwner",
          "type": "address"
        }
      ],
      "name": "transferOwnership",
      "outputs": [],
      "payable": false,
      "stateMutability": "nonpayable",
      "type": "function"
    },
    {
      "constant": true,
      "inputs": [],
      "name": "totalLockedTokens",
      "outputs": [
        {
          "name": "",
          "type": "uint256"
        }
      ],
      "payable": false,
      "stateMutability": "view",
      "type": "function"
    },
    {
      "constant": false,
      "inputs": [
        {
          "name": "addr",
          "type": "address"
        }
      ],
      "name": "removeAddressFromGovernanceContract",
      "outputs": [
        {
          "name": "success",
          "type": "bool"
        }
      ],
      "payable": false,
      "stateMutability": "nonpayable",
      "type": "function"
    },
    {
      "constant": true,
      "inputs": [
        {
          "name": "_lockSlotId",
          "type": "uint256"
        }
      ],
      "name": "getNextDateWithdraw",
      "outputs": [
        {
          "name": "",
          "type": "uint256"
        }
      ],
      "payable": false,
      "stateMutability": "view",
      "type": "function"
    },
    {
      "inputs": [
        {
          "name": "_token",
          "type": "address"
        }
      ],
      "payable": false,
      "stateMutability": "nonpayable",
      "type": "constructor"
    },
    {
      "anonymous": false,
      "inputs": [
        {
          "indexed": true,
          "name": "sender",
          "type": "address"
        },
        {
          "indexed": false,
          "name": "amount",
          "type": "uint256"
        },
        {
          "indexed": false,
          "name": "time",
          "type": "uint256"
        }
      ],
      "name": "TokensWithdrawed",
      "type": "event"
    },
    {
      "anonymous": false,
      "inputs": [
        {
          "indexed": true,
          "name": "holder",
          "type": "address"
        },
        {
          "indexed": false,
          "name": "id",
          "type": "uint256"
        },
        {
          "indexed": false,
          "name": "amount",
          "type": "uint256"
        }
      ],
      "name": "LockSlotCreated",
      "type": "event"
    },
    {
      "anonymous": false,
      "inputs": [
        {
          "indexed": false,
          "name": "addr",
          "type": "address"
        }
      ],
      "name": "GovernanceContractAdded",
      "type": "event"
    },
    {
      "anonymous": false,
      "inputs": [
        {
          "indexed": false,
          "name": "addr",
          "type": "address"
        }
      ],
      "name": "GovernanceContractRemoved",
      "type": "event"
    },
    {
      "anonymous": false,
      "inputs": [
        {
          "indexed": true,
          "name": "previousOwner",
          "type": "address"
        }
      ],
      "name": "OwnershipRenounced",
      "type": "event"
    },
    {
      "anonymous": false,
      "inputs": [
        {
          "indexed": true,
          "name": "previousOwner",
          "type": "address"
        },
        {
          "indexed": true,
          "name": "newOwner",
          "type": "address"
        }
      ],
      "name": "OwnershipTransferred",
      "type": "event"
    }
  ],
  "bytecode": "0x608060405234801561001057600080fd5b50604051602080611cb2833981016040525160008054600160a060020a0319908116331790915560098054600160a060020a03909316929091169190911790556277f8806007556305a4ec00600655611c448061006e6000396000f30060806040526004361061013d5763ffffffff7c010000000000000000000000000000000000000000000000000000000060003504166318c0b75881146101425780631ada17ec146101e0578063326539a21461021457806337bdc99b1461023b578063450119e4146102535780634d7f3c3b1461026857806350500a8a1461029c578063715018a6146102d15780637aac54ed146102e65780637fe0a634146102fb57806381ab5b0e1461031057806382f8bc36146103315780638da5cb5b146103a25780639187cb03146103b7578063a00990e6146103cf578063a0ed3ac5146103e7578063d56805e1146103fc578063d68f4dd114610411578063de6152e8146104db578063eec3e6e7146104f0578063f2fde38b14610505578063f5c476f914610526578063f666cd371461053b578063fe9e9a3e1461055c575b600080fd5b34801561014e57600080fd5b506040805160206004602480358281013584810280870186019097528086526101de968435600160a060020a031696369660449591949091019291829185019084908082843750506040805187358901803560208181028481018201909552818452989b9a9989019892975090820195509350839250850190849080828437509497506105749650505050505050565b005b3480156101ec57600080fd5b506101f8600435610a28565b60408051600160a060020a039092168252519081900360200190f35b34801561022057600080fd5b50610229610a56565b60408051918252519081900360200190f35b34801561024757600080fd5b506101de600435610a5d565b34801561025f57600080fd5b50610229610c53565b34801561027457600080fd5b50610283600435602435610c59565b6040805192835260208301919091528051918290030190f35b3480156102a857600080fd5b506102bd600160a060020a0360043516610d40565b604080519115158252519081900360200190f35b3480156102dd57600080fd5b506101de610d55565b3480156102f257600080fd5b50610229610dc1565b34801561030757600080fd5b50610229610dc7565b34801561031c57600080fd5b506102bd600160a060020a0360043516610dcd565b34801561033d57600080fd5b50610352600160a060020a0360043516610e68565b60408051602080825283518183015283519192839290830191858101910280838360005b8381101561038e578181015183820152602001610376565b505050509050019250505060405180910390f35b3480156103ae57600080fd5b506101f8610ed4565b3480156103c357600080fd5b50610229600435610ee3565b3480156103db57600080fd5b506101de600435610f67565b3480156103f357600080fd5b50610229611229565b34801561040857600080fd5b506101f861122f565b34801561041d57600080fd5b5061042960043561123e565b60405180868152602001806020018060200185815260200184151515158152602001838103835287818151815260200191508051906020019060200280838360005b8381101561048357818101518382015260200161046b565b50505050905001838103825286818151815260200191508051906020019060200280838360005b838110156104c25781810151838201526020016104aa565b5050505090500197505050505050505060405180910390f35b3480156104e757600080fd5b5061022961146a565b3480156104fc57600080fd5b50610229611470565b34801561051157600080fd5b506101de600160a060020a0360043516611476565b34801561053257600080fd5b50610229611499565b34801561054757600080fd5b506102bd600160a060020a036004351661149f565b34801561056857600080fd5b50610229600435611535565b33600090815260016020526040812054819060ff16151561059457600080fd5b600160a060020a038516151561061a576040805160e560020a62461bcd02815260206004820152602e60248201527f4c6f636b53746f726167652063616e6e6f74206265206372656174656420666f60448201527f7220746869732061646472657373000000000000000000000000000000000000606482015290519081900360840190fd5b8251845114801561062c575060008451115b151561063757600080fd5b600654610643846116d6565b11156106bf576040805160e560020a62461bcd02815260206004820152602660248201527f496e636f72726563742074696d652c2073686f756c64206265206c657373203360448201527f2079656172730000000000000000000000000000000000000000000000000000606482015290519081900360840190fd5b60006106ca856116d6565b1161071f576040805160e560020a62461bcd02815260206004820152601060248201527f496e636f727265637420616d6f756e7400000000000000000000000000000000604482015290519081900360640190fd5b610728846116d6565b600554600954604080517f16d8039c000000000000000000000000000000000000000000000000000000008152336004820152306024820152604481018590529051939550919350600160a060020a0316916316d8039c9160648082019260009290919082900301818387803b1580156107a157600080fd5b505af11580156107b5573d6000803e3d6000fd5b5050600954604080517f23b872dd000000000000000000000000000000000000000000000000000000008152336004820152306024820152604481018790529051600160a060020a0390921693506323b872dd92506064808201926020929091908290030181600087803b15801561082c57600080fd5b505af1158015610840573d6000803e3d6000fd5b505050506040513d602081101561085657600080fd5b506108639050848461172d565b600160a060020a0386166000908152600260209081526040808320858452825290912082518051919261089b92849290910190611b88565b5060208281015180516108b49260018501920190611b88565b50604082015160028201556060909101516003909101805460ff1916911515919091179055600580546001810182556000919091527f036b6384b5eca791c62761152d0c79bb0604c104a5fb6f4eb0703f3154bb3db001805473ffffffffffffffffffffffffffffffffffffffff1916600160a060020a03871617905560085461093e90836117d6565b600855600160a060020a03851660009081526003602052604090205415156109b957600480546001810182556000919091527f8a35acfbc15ff81a39ae7d344fd709f28e8600b4aa8c65c6b64bfe7fe36bd19b01805473ffffffffffffffffffffffffffffffffffffffff1916600160a060020a0387161790555b600160a060020a0385166000818152600360209081526040808320805460018101825590845292829020909201849055815184815290810185905281517f2539d2642b09347a3904531e205a3efb0369d003a9af99d32cb6020c02fbdb5c929181900390910190a25050505050565b6000600582815481101515610a3957fe5b600091825260209091200154600160a060020a031690505b919050565b6004545b90565b6000610a6933836117e9565b1515610a7457600080fd5b610a7e33836119cb565b3360009081526002602081815260408084208785529091529091200154909150610aae908263ffffffff6117d616565b33600081815260026020818152604080842088855282528084209092019490945560095481517fa9059cbb0000000000000000000000000000000000000000000000000000000081526004810194909452602484018690529051600160a060020a039091169363a9059cbb93604480820194929392918390030190829087803b158015610b3a57600080fd5b505af1158015610b4e573d6000803e3d6000fd5b505050506040513d6020811015610b6457600080fd5b50503360009081526002602081815260408084208685528252928390209182015482548451818402810184019095528085529093610bda939092909190830182828015610bd057602002820191906000526020600020905b815481526020019060010190808311610bbc575b50505050506116d6565b1415610bea57610bea3383611ac6565b600a54610bfd908263ffffffff6117d616565b600a55600854610c13908263ffffffff611af916565b60085560408051828152426020820152815133927f15fcba5c1a08673136c7dad5a972957fd199328047178347c2592e9bf269d663928290030190a25050565b60055490565b60008060026000610c6986610a28565b600160a060020a03168152602080820192909252604090810160009081208782529092529020600101548310610c9e57600080fd5b60026000610cab86610a28565b600160a060020a03168152602080820192909252604090810160009081208782529092529020805484908110610cdd57fe5b9060005260206000200154905060026000610cf786610a28565b600160a060020a03168152602080820192909252604090810160009081208782529092529020600101805484908110610d2c57fe5b906000526020600020015491509250929050565b60016020526000908152604090205460ff1681565b600054600160a060020a03163314610d6c57600080fd5b60008054604051600160a060020a03909116917ff8df31144d9c2f0f6b59d69b8b98abd5459d07f2742c4df920b25aae33c6482091a26000805473ffffffffffffffffffffffffffffffffffffffff19169055565b60075481565b600a5481565b60008054600160a060020a03163314610de557600080fd5b600160a060020a03821660009081526001602052604090205460ff161515610a5157600160a060020a038216600081815260016020818152604092839020805460ff1916909217909155815192835290517fc8b076565c11e989d811cc9ebc33f3fc9d6a635f402f80ca900c7c126ba887489281900390910190a1506001919050565b600160a060020a038116600090815260036020908152604091829020805483518184028101840190945280845260609392830182828015610ec857602002820191906000526020600020905b815481526020019060010190808311610eb4575b50505050509050919050565b600054600160a060020a031681565b600060026000610ef284610a28565b600160a060020a0316600160a060020a0316815260200190815260200160002060008381526020019081526020016000206001016000815481101515610f3457fe5b9060005260206000200154421015610f4e57506000610a51565b610f60610f5a83610a28565b836119cb565b9050610a51565b60008054600160a060020a03163314610f7f57600080fd5b61102660026000610f8f85610a28565b600160a060020a0316600160a060020a031681526020019081526020016000206000848152602001908152602001600020600101600160026000610fd287610a28565b600160a060020a0316815260208082019290925260409081016000908120888252909252902060010154825491900390811061100a57fe5b90600052602060002001546007546117d690919063ffffffff16565b421161107c576040805160e560020a62461bcd02815260206004820152601360248201527f546f6b656e7320617265206e6f74206c6f737400000000000000000000000000604482015290519081900360640190fd5b611088610f5a83610a28565b600a5490915061109e908263ffffffff6117d616565b600a556008546110b4908263ffffffff611af916565b60085561113a600260006110c785610a28565b600160a060020a0316815260208082019290925260409081016000908120868252835281902080548251818502810185019093528083529192909190830182828015610bd05760200282019190600052602060002090815481526020019060010190808311610bbc5750505050506116d6565b6002600061114785610a28565b600160a060020a031681526020808201929092526040908101600090812086825290925290206002015561118361117d83610a28565b83611ac6565b60095460008054604080517fa9059cbb000000000000000000000000000000000000000000000000000000008152600160a060020a039283166004820152602481018690529051919093169263a9059cbb9260448083019360209390929083900390910190829087803b1580156111f957600080fd5b505af115801561120d573d6000803e3d6000fd5b505050506040513d602081101561122357600080fd5b50505050565b60085490565b600954600160a060020a031681565b60006060806000806112c96002600061125689610a28565b600160a060020a03168152602080820192909252604090810160009081208a8252835281902080548251818502810185019093528083529192909190830182828015610bd05760200282019190600052602060002090815481526020019060010190808311610bbc5750505050506116d6565b9450600260006112d888610a28565b600160a060020a0316600160a060020a03168152602001908152602001600020600087815260200190815260200160002060010180548060200260200160405190810160405280929190818152602001828054801561135657602002820191906000526020600020905b815481526020019060010190808311611342575b505050505093506002600061136a88610a28565b600160a060020a03168152602080820192909252604090810160009081208982528352819020805482518185028101850190935280835291929091908301828280156113d557602002820191906000526020600020905b8154815260200190600101908083116113c1575b50505050509250600260006113e988610a28565b600160a060020a0316600160a060020a0316815260200190815260200160002060008781526020019081526020016000206002015491506002600061142d88610a28565b600160a060020a0316815260208082019290925260409081016000908120988152979091529095206003015493959294509092909160ff90911690565b60065481565b600a5490565b600054600160a060020a0316331461148d57600080fd5b61149681611b0b565b50565b60085481565b60008054600160a060020a031633146114b757600080fd5b600160a060020a03821660009081526001602052604090205460ff1615610a5157600160a060020a038216600081815260016020908152604091829020805460ff19169055815192835290517f6143afc7a354e1ab1c3f52714297bfe2a0958df8cd9e15f84953a51264bb52bc9281900390910190a1506001919050565b60008060006002600061154786610a28565b600160a060020a0316600160a060020a03168152602001908152602001600020600085815260200190815260200160002060010160016002600061158a88610a28565b600160a060020a031681526020808201929092526040908101600090812089825290925290206001015482549190039081106115c257fe5b90600052602060002001544211156115dd57600091506116cf565b5060005b600260006115ee86610a28565b600160a060020a03168152602080820192909252604090810160009081208782529092529020600101548110156116cf576002600061162c86610a28565b600160a060020a0316815260208082019290925260409081016000908120878252909252902060010180548290811061166157fe5b90600052602060002001544210156116c7576002600061168086610a28565b600160a060020a031681526020808201929092526040908101600090812087825290925290206001018054829081106116b557fe5b906000526020600020015491506116cf565b6001016115e1565b5092915050565b600080805b83518110156116cf57600084828151811015156116f457fe5b602090810290910101511161170857600080fd5b838181518110151561171657fe5b6020908102909101015191909101906001016116db565b611735611bd3565b60004283600081518110151561174757fe5b602090810290910101805190910190528251600110156117af575060015b82518110156117af57826001820381518110151561177f57fe5b90602001906020020151838281518110151561179757fe5b60209081029091010180519091019052600101611765565b50506040805160808101825292835260208301919091526000908201819052606082015290565b818101828110156117e357fe5b92915050565b600160a060020a038216600090815260026020908152604080832084845290915281206003015460ff1615611868576040805160e560020a62461bcd02815260206004820152601c60248201527f46756c6c20776974686472617720616c72656164792065786973747300000000604482015290519081900360640190fd5b600160a060020a0383166000908152600260209081526040808320858452825280832080548251818502810185019093528083526118d793830182828015610bd05760200282019190600052602060002090815481526020019060010190808311610bbc5750505050506116d6565b1161192c576040805160e560020a62461bcd02815260206004820152601e60248201527f54686973206c6f636b53746f72616765206973206e6f74206578697374730000604482015290519081900360640190fd5b600160a060020a038316600090815260026020908152604080832085845290915281206001018054909190811061195f57fe5b9060005260206000200154421115156119c2576040805160e560020a62461bcd02815260206004820152601860248201527f556e6c6f636b2074696d6520686173206e6f7420636f6d650000000000000000604482015290519081900360640190fd5b50600192915050565b600160a060020a038216600090815260026020818152604080842085855290915282209081015460019091015482919060001901825b60008210611abb57600160a060020a03871660009081526002602090815260408083208984529091529020600101805483908110611a3b57fe5b906000526020600020015442101515611aaf575060005b81600101811015611aa557600160a060020a03871660009081526002602090815260408083208984529091529020805482908110611a8c57fe5b6000918252602090912001549390930192600101611a52565b8284039350611abb565b60001990910190611a01565b509195945050505050565b600160a060020a03909116600090815260026020908152604080832093835292905220600301805460ff19166001179055565b600082821115611b0557fe5b50900390565b600160a060020a0381161515611b2057600080fd5b60008054604051600160a060020a03808516939216917f8be0079c531659141344cd1fd0a4f28419497f9722a3daafe3b4186f6b6457e091a36000805473ffffffffffffffffffffffffffffffffffffffff1916600160a060020a0392909216919091179055565b828054828255906000526020600020908101928215611bc3579160200282015b82811115611bc3578251825591602001919060010190611ba8565b50611bcf929150611bfe565b5090565b6080604051908101604052806060815260200160608152602001600081526020016000151581525090565b610a5a91905b80821115611bcf5760008155600101611c045600a165627a7a7230582052fb2b1d9d892876a2a2234c099e465c01793f8820d65e3ca98cbe91990111300029",
  "source": "pragma solidity ^0.4.24;\n\nimport \"./ReleaseLockToken.sol\";\n\ncontract TimeLockedTokenStorage is ReleaseLockToken {\n\n    constructor(address _token) public {\n        token_ = IQDAO(_token);\n        lostTime = 7862400; // 3 months\n        maximumDurationToFreeze = 94694400; // 3 years\n    }\n\n\n    /**\n    * @dev Returned available tokens for withdraw\n    * @param _lockSlotId uint256 unique id lockSlot\n    */\n    function getAvailableTokens(uint256 _lockSlotId) public view returns(uint256) {\n        if (now < uint256(lockTokenStorage[getAddressToId(_lockSlotId)][_lockSlotId].periods[0])) {\n            return 0;\n        } else {\n            return _getAvailableTokens(getAddressToId(_lockSlotId), _lockSlotId);\n        }\n    }\n\n    /**\n    * @dev Returned total holders\n    */\n    function getHoldersQuantity() public view returns(uint256) {\n        return holdersList.length;\n    }\n\n    /**\n   * @dev Returned total locked slots\n   */\n    function getSlotsQuantity() public view returns(uint256) {\n        return totalSlot.length;\n    }\n    /**\n     * @dev Returned total locked tokens\n    */\n    function getTotalLockedTokens() public view returns(uint256) {\n        return totalLockedTokens;\n    }\n    /**\n    * @dev Returned params for lockSlot\n    * @param _lockSlotId uint256 unique id lockSlot\n    */\n    function getLock(uint256 _lockSlotId) public view returns(  uint256 _amountTokens,\n                                                                uint256[] _periods,\n                                                                uint256[] _tokens,\n                                                                uint256 _paidTokens,\n                                                                bool _finalize) {\n\n        _amountTokens = _combineArray(lockTokenStorage[getAddressToId(_lockSlotId)][_lockSlotId].tokens);\n        _periods = lockTokenStorage[getAddressToId(_lockSlotId)][_lockSlotId].periods;\n        _tokens = lockTokenStorage[getAddressToId(_lockSlotId)][_lockSlotId].tokens;\n        _paidTokens = lockTokenStorage[getAddressToId(_lockSlotId)][_lockSlotId].paidTokens;\n        _finalize = lockTokenStorage[getAddressToId(_lockSlotId)][_lockSlotId].finalized;\n    }\n}\n",
  "sourcePath": "/home/pillardev/Desktop/Platinum/smartcontract/contracts/TimeLockedTokenStorage/TimeLockedTokenStorage.sol",
  "compiler": {
    "name": "solc",
    "version": "0.4.25+commit.59dbf8f1.Emscripten.clang"
  },
  "schemaVersion": "2.0.2",
  "updatedAt": "2019-06-15T19:49:28.427Z"
}